S01800006C696768742B736F696C2B64687431312E7372656345
S11300000C9434000C9449000C9449000C9449005D
S11300100C9449000C9449000C9449000C94490038
S11300200C9449000C9449000C9449000C94490028
S11300300C9449000C9449000C9449000C94490018
S11300400C9449000C9449000C9449000C94490008
S11300500C9449000C9449000C9449000C944900F8
S11300600C9449000C94490011241FBECFEFD8E032
S1130070DEBFCDBF11E0A0E0B1E0EAE1FEE002C0E6
S113008005900D92AC36B107D9F70E9443010C9448
S11300900B070C940000E0EBF0E080818362808326
S11300A0E1EBF0E08081826080838AB188608AB964
S11300B00895CF93DF9300D000D01F92CDB7DEB761
S11300C0782FFE01319695E0DF011D929A95E9F7AC
S11300D097B1906297B998B1906298B9BFEF21EE49
S11300E084E0B15020408040E1F700C0000098B1A6
S11300F09F7D98B99FEFA0EEB0E09150A040B04032
S1130100E1F700C0000098B1906298B925E02A9503
S1130110F1F7000097B19F7D97B980ED8A95F1F7CB
S113012035995AC0AFE3B1E01197F1F700C0000070
S1130130359B54C08FE391E00197F1F700C00000B4
S113014080E023C0359BFECFA0EAAA95F1F7359B4A
S11301500CC047E050E0491B510921E030E002C0E7
S1130160220F331F4A95E2F7622B3599FECF9F5F2A
S113017002C060E090E0983028F3E1E0F0E0EC0F9A
S1130180FD1FE80FF11D60838F5F853090F387B109
S1130190806287B988B1806288B9BFEF21EE84E0BC
S11301A0B15020408040E1F700C0000099812A81CD
S11301B030E0290F311D8B81280F311D4C81240F14
S11301C0311D4D8150E02417350751F4772359F040
S11301D0713041F08FEF07C08FEF05C08FEF03C080
S11301E08FEF01C0892F0F900F900F900F900F90F9
S11301F0DF91CF910895CF93DF93EB010E945900D3
S11302008F3F09F08883DF91CF91089584B1826193
S113021084B9E0EBF0E0808183688083E1EBF0E077
S1130220808184608083089583E480937C00EAE77E
S1130230F0E080818064808380917A0086FDFCCF29
S11302408091780090917900089584E480937C00F3
S1130250EAE7F0E080818064808380917A0086FD03
S1130260FCCF80917800909179000895FC0107C03B
S11302709091C00095FFFCCF31968093C600808199
S11302808111F6CF0895CF93DF93CDB7DEB7C55470
S1130290D1090FB6F894DEBF0FBECDBF87E88093B7
S11302A07A001D86FE013E9688E2DF011D928A9542
S11302B0E9F70E94FC030E94F0038FEF84B915B89C
S11302C08AB184608AB987B18E7F87B988B1816029
S11302D088B988B1826088B90E940603309B1DC02A
S11302E08BE0E1E0F1E0DE01119601900D928A9538
S11302F0E1F7CE0101960E9436018BB1877F8BB95D
S11303008AB1877F8AB9BFEFE1EEF4E0B150E040F3
S1130310F040E1F700C000000FC08BE0ECE0F1E03A
S1130320DE01119601900D928A95E1F7CE010196B6
S11303300E9436010E944B00BE01635F7F4F80E044
S11303400E94FB008D851F928F9387E191E09F931C
S11303508F938E01025F1F4F1F930F930E942104FE
S1130360C8010E9411040F2EF8E2FF2EF02DD801CF
S1130370EF2D1D92EA95E9F7FFEF23ED30E3F150FD
S113038020403040E1F700C00000BE01635F7F4FB2
S113039081E00E94FB008D851F928F9386E291E09D
S11303A09F938F931F930F930E942104C8010E946F
S11303B01104D8011D92FA94E9F7BFEFE9E6F8E1D8
S11303C0B150E040F040E1F700C000000E94140189
S11303D09F938F9383E391E09F938F930D50110923
S11303E01F930F930E942104C8010E9436012FEF2E
S11303F033ED40E3215030404040E1F700C00000BD
S11304000E9425019F938F9380E491E09F938F93A3
S11304101F930F930E942104C8010E9436018FEF9D
S113042093EDA0E381509040A040E1F700C00000AC
S11304300FB6F894DEBF0FBECDBF31994EC01F92E8
S113044081E08F938CE491E09F938F931F930F939C
S11304500E942104C8010E943601FFEF29E638E119
S1130460F15020403040E1F700C000000E94250117
S11304700F900F900F900F900F900F908A3892402A
S1130480E0F40E94060185B1816085B985B18F7E53
S113049085B983EC90E00CC08093B300AFEFB7EA6A
S11304A0E1E6A150B040E040E1F700C000000F9643
S11304B08F3F910589F384F334C00E942501883A63
S11304C0924078F184B1806184B90E94060110924F
S11304D0B30085B18D7F85B924C01F921F928CE42F
S11304E091E09F938F938E010F5F1F4F1F930F9384
S11304F00E942104C8010E9436012FEF39E648E129
S1130500215030404040E1F700C000001092B30099
S113051085B18D7F85B90F900F900F900F900F903C
S11305200F900E94D403182F1F928F9389E591E0B6
S11305309F938F93CE01C6969F938F930E9421041D
S11305400F900F900F900F900F900F9020E030E0DD
S113055008C08091C00085FFFCCF9093C6002F5F38
S11305603F4FE6E3F0E0EC0FFD1FE20FF31F908135
S11305709111EFCF8FEF99E6A8E181509040A04010
S1130580E1F700C000001123F9F08091000181110E
S11305900FC01AC00E9412030F5F1F4F02C000E079
S11305A010E008301105B4F3BFEFEB1AFB0A02C0E8
S11305B0E12CF12CE0E4EE16F1048CF38BB18F7096
S11305C08BB9109200018ACE112309F487CE809151
S11305D00001811183CEE12CF12C0DC00E94730324
S11305E00F5F1F4F02C000E010E008301105B4F3A4
S11305F0FFEFEF1AFF0A20E4E216F104A4F38BB133
S11306008F708BB981E08093000168CE87B18B7FB6
S113061087B988B1846088B98AB1806F8AB90E9429
S1130620F00308958BB18F788BB98BB180688BB947
S11306308FE99FE00197F1F700C000008BB18F7C38
S11306408BB98BB1806C8BB98FE99FE00197F1F77F
S113065000C000008BB18F748BB98BB180648BB9EF
S11306608FE99FE00197F1F700C000008BB18F760E
S11306708BB98BB180668BB98FE99FE00197F1F755
S113068000C000008BB18F728BB98BB180628BB9C3
S11306908FE99FE00197F1F700C000008BB18F73E1
S11306A08BB98BB180638BB98FE99FE00197F1F728
S11306B000C000008BB18F718BB98BB180618BB995
S11306C08FE99FE00197F1F700C000008BB18F79AB
S11306D08BB98BB180698BB98FE99FE00197F1F7F2
S11306E000C0000008958BB18F798BB98BB18069FC
S11306F08BB98FE99FE00197F1F700C000008BB13F
S11307008F718BB98BB180618BB98FE99FE00197B1
S1130710F1F700C000008BB18F738BB98BB180638C
S11307208BB98FE99FE00197F1F700C000008BB10E
S11307308F728BB98BB180628BB98FE99FE001977F
S1130740F1F700C000008BB18F768BB98BB1806656
S11307508BB98FE99FE00197F1F700C000008BB1DE
S11307608F748BB98BB180648BB98FE99FE001974B
S1130770F1F700C000008BB18F7C8BB98BB1806C1A
S11307808BB98FE99FE00197F1F700C000008BB1AE
S11307908F788BB98BB180688BB98FE99FE0019713
S11307A0F1F700C00000089588EC90E007C0EFE185
S11307B0FEE43197F1F700C000000197329B0CC0B2
S11307C00097A9F780E009C0EFE1FEE43197F1F763
S11307D000C000008F5F01C080E0329BF5CF089518
S11307E088E18093C10086E08093C2001092C50026
S11307F087E68093C40008951092C00088E1809336
S1130800C10086E08093C2001092C50087E6809301
S1130810C40008959091C00095FFFCCF8093C6005A
S11308200895CF93DF93EC0103C00E940A0421963C
S113083088818111FACF8AE00E940A04DF91CF9166
S11308400895AEE0B0E0E7E2F4E00C94E2060D892E
S11308501E8986E08C831A8309838FEF9FE79E832A
S11308608D83AE01475E5F4F6F89788DCE0101960F
S11308700E944304EF81F885E00FF11F10822E9649
S1130880E4E00C94FE06ABE0B0E0E9E4F4E00C94A0
S1130890D4066C017B018A01FC01178216828381D4
S11308A081FFCCC1CE0101963C01F6019381F70191
S11308B093FD859193FF81917F01882309F4BAC147
S11308C0853239F493FD859193FF81917F018532BF
S11308D029F4B60190E00E943A06E7CF912C212C2E
S11308E0312CFFE1F315D8F08B3279F038F48032F3
S11308F079F08332A1F4232D20611DC08D3261F083
S1130900803369F4232D216016C0832D8260382E34
S1130910E32DE4603E2E2AC0F32DF8601DC037FCA1
S11309202DC020ED280F2A3040F08E32B9F436FC69
S113093081C1232D2064322E19C036FE06C08AE000
S1130940989E200D1124922E11C0EAE02E9E200DB7
S11309501124222EF32DF0623F2E08C08C3621F490
S1130960832D8068382E02C0883641F4F70193FD48
S1130970859193FF81917F018111B3CF982F9F7D42
S11309809554933028F40C5F1F4F9FE399830DC057
S1130990833631F0833771F0833509F059C021C0B3
S11309A0F801808189830E5F1F4F88248394912CE2
S11309B0530113C02801F2E04F0E511CF801A0802E
S11309C0B18036FE03C0692D70E002C06FEF7FEF87
S11309D0C5010E942F064C018201F32DFF773F2EA3
S11309E016C0280122E0420E511CF801A080B180FB
S11309F036FE03C0692D70E002C06FEF7FEFC501C2
S1130A000E9424064C01F32DF0683F2E820133FC32
S1130A101BC0822D90E088169906B0F4B60180E2DE
S1130A2090E00E943A062A94F4CFF50137FC8591B0
S1130A3037FE81915F01B60190E00E943A062110D1
S1130A402A9421E0821A91088114910471F7E8C074
S1130A50843611F0893641F5F80137FE07C060810C
S1130A607181828193810C5F1F4F08C06081718105
S1130A70072E000C880B990B0E5F1F4FF32DFF768A
S1130A803F2E97FF09C090958095709561957F4F93
S1130A908F4F9F4FF0683F2E2AE030E0A3010E9461
S1130AA07606882E861845C0853731F4232D2F7E8F
S1130AB0B22E2AE030E025C0932D997FB92E8F36CF
S1130AC0C1F018F4883579F0B5C0803719F088374B
S1130AD021F0B0C0E92FE061BE2EB4FE0DC0FB2DA5
S1130AE0F460BF2E09C034FE0AC0292F2660B22E3E
S1130AF006C028E030E005C020E130E002C020E17B
S1130B0032E0F801B7FE07C0608171818281938170
S1130B100C5F1F4F06C06081718180E090E00E5F22
S1130B201F4FA3010E947606882E8618FB2DFF779F
S1130B303F2E36FE0DC0232D2E7FA22E891458F48D
S1130B4034FE0BC032FC09C0832D8E7EA82E05C056
S1130B50B82CA32C03C0B82C01C0B92CA4FE0FC020
S1130B60FE01E80DF11D8081803321F49A2D997ED8
S1130B70A92E09C0A2FE06C0B394B39404C08A2D62
S1130B80867809F0B394A3FC11C0A0FE06C0B21489
S1130B9088F4280C922C9B180EC0B21460F4B60191
S1130BA080E290E00E943A06B394F7CFB21418F4AE
S1130BB02B1802C0982C212CA4FE10C0B60180E38F
S1130BC090E00E943A06A2FE17C0A1FC03C088E789
S1130BD090E002C088E590E0B6010CC08A2D8678CA
S1130BE059F0A1FE02C08BE201C080E2A7FC8DE2B5
S1130BF0B60190E00E943A06891438F4B60180E305
S1130C0090E00E943A069A94F7CF8A94F301E80D93
S1130C10F11D8081B60190E00E943A068110F5CF63
S1130C20222009F442CEB60180E290E00E943A0606
S1130C302A94F6CFF6018681978102C08FEF9FEF49
S1130C402B96E2E10C94F006FC0105906150704093
S1130C500110D8F7809590958E0F9F1F0895FC0181
S1130C606150704001900110D8F7809590958E0FD7
S1130C709F1F08950F931F93CF93DF93FB0123814D
S1130C8021FD03C08FEF9FEF2CC022FF16C04681C9
S1130C905781248135814217530744F4A081B181DF
S1130CA09D012F5F3F4F318320838C9326813781B1
S1130CB02F5F3F4F3783268314C08B01EC01FB0168
S1130CC00084F185E02D0995892BE1F6D80116966B
S1130CD08D919C911797019617969C938E931697D6
S1130CE0CE01DF91CF911F910F910895FA01AA27A8
S1130CF0283051F1203181F1E8946F936E7F6E5F5B
S1130D007F4F8F4F9F4FAF4FB1E03ED0B4E03CD008
S1130D10670F781F891F9A1FA11D680F791F8A1FEB
S1130D20911DA11D6A0F711D811D911DA11D20D052
S1130D3009F468943F912AE0269F11243019305D0C
S1130D403193DEF6CF010895462F4770405D4193FD
S1130D50B3E00FD0C9F7F6CF462F4F70405D4A334A
S1130D6018F0495D31FD4052419302D0A9F7EACF12
S1130D70B4E0A6959795879577956795BA95C9F741
S1130D8000976105710508959B01AC010A2E069434
S1130D905795479537952795BA95C9F7620F731FED
S1130DA0841F951FA01D08952F923F924F925F922A
S1130DB06F927F928F929F92AF92BF92CF92DF9267
S1130DC0EF92FF920F931F93CF93DF93CDB7DEB7CC
S1130DD0CA1BDB0B0FB6F894DEBF0FBECDBF099460
S1130DE02A88398848885F846E847D848C849B84B7
S1130DF0AA84B984C884DF80EE80FD800C811B81C5
S1130E00AA81B981CE0FD11D0FB6F894DEBF0FBEF3
S10D0E10CDBFED010895F894FFCF63
S1130E1A0166697265203A2030200A0066697265A3
S1130E2A203A2031200A0074656D70657261747508
S1130E3A72653A25640068756D69646974793A2043
S1130E4A2564006C69676874203A202564200A00C6
S1130E5A736F696C203A202564200A0077617465EF
S1130E6A72203A202564200A0050756C7365207735
S10F0E7A696474683A2025640D0A0000C5
S9030000FC
