:100000000C9434000C9449000C9449000C94490061
:100010000C9449000C9449000C9449000C9449003C
:100020000C9449000C9449000C9449000C9449002C
:100030000C9449000C9449000C9449000C9449001C
:100040000C9449000C9449000C9449000C9449000C
:100050000C9449000C9449000C9449000C944900FC
:100060000C9449000C94490011241FBECFEFD8E036
:10007000DEBFCDBF11E0A0E0B1E0E2E6FDE002C0EE
:1000800005900D92AC36B107D9F70E942C010C9463
:10009000AF060C940000E0EBF0E080818362808387
:1000A000E1EBF0E0808182608083539A08950F93A2
:1000B0001F93CF93DF9300D000D01F92CDB7DEB750
:1000C000682FFE01319685E0DF011D928A95E9F7E0
:1000D0003D9A459ABFEF21EE84E0B1502040804028
:1000E000E1F700C0000045989FEFA0EEB0E091500E
:1000F000A040B040E1F700C00000459A25E02A95F5
:10010000F1F700003D9880ED8A95F1F7359B02C02C
:100110008FEF51C0AFE3B1E01197F1F700C00000DD
:10012000359BF6CF8FE391E00197F1F700C0000017
:10013000AE014A5F5F4FA1E0B0E027E030E090E021
:10014000359BFECF80EA8A95F1F7359B07C08D017C
:10015000022E01C0000F0A94EAF7902B3599FECFCA
:100160002150310968F79193E417F50731F73D9A6B
:10017000459A9FEFA1EEB4E09150A040B040E1F766
:1001800000C0000089819B814A81282F30E0240F24
:10019000311D290F311D4C81240F311D4D8150E03F
:1001A0002417350709F0B4CF662321F0613009F038
:1001B000AFCF01C0892F0F900F900F900F900F902D
:1001C000DF91CF911F910F910895CF93DF93EB01B2
:1001D0000E9457008F3F09F08883DF91CF910895E7
:1001E00084B1826184B9E0EBF0E080818368808330
:1001F000E1EBF0E0808184608083089583E4809364
:100200007C0080917A00806480937A0080917A00EB
:1002100086FDFCCF8091780090917900089584E468
:1002200080937C0080917A00806480937A00809132
:100230007A0086FDFCCF8091780090917900089536
:10024000FC019191992339F08091C00085FFFCCF8A
:100250009093C600F6CF0895CF93DF93CDB7DEB766
:10026000C554D1090FB6F894DEBF0FBECDBF87E8E5
:1002700080937A0026961FAE26979E012F5F3F4FF0
:10028000790188E2F90111928A95E9F70E949B03AE
:100290000E948F038FEF84B915B8529A3898409A0C
:1002A000419A0E94BD028E01075C1F4F30E4232E4D
:1002B00031E0332E4CE4642E41E0742E59E5452E96
:1002C00051E0552E6E01F9E2CF0ED11C309B14C0C7
:1002D00061E071E0C8010E94BE03C8010E942001D4
:1002E0005B9853982FEF31EE84E0215030408040EE
:1002F000E1F700C000000AC06CE071E0C8010E9494
:10030000BE03C8010E9420010E944B00BE016B5B2E
:100310007F4F80E00E94E50026968FAD26971F92C2
:100320008F93E7E1F1E0FF93EF93FF92EF920E944A
:10033000C503C7010E94B003F70128E211922A9574
:10034000E9F73FEF89E698E1315080409040E1F7CE
:1003500000C00000BE016B5B7F4F81E00E94E500A2
:1003600026968FAD2697A82EB12C1F928F93E6E28A
:10037000F1E0FF93EF93FF92EF920E94C503C70154
:100380000E94B003F70128E211922A95E9F73FEFA6
:1003900089E698E1315080409040E1F700C00000CC
:1003A0000E94FE009F938F93E3E3F1E0FF93EF93AE
:1003B0001F930F930E94C503C8010E9420013FEFC5
:1003C00083ED90E3315080409040E1F700C00000A1
:1003D0000E940F019F938F933F922F921F930F9331
:1003E0000E94C503C8010E942001EFEFF3ED20E356
:1003F000E150F0402040E1F700C000000FB6F89453
:10040000DEBF0FBECDBF95E1A916B10414F05A9A14
:1004100001C05A98319940C01F9281E08F937F921A
:100420006F921F930F930E94C503C8010E94200181
:10043000EFEFF9E628E1E150F0402040E1F700C09D
:1004400000000E940F010F900F900F900F900F90DF
:100450000F908A389240A0F40E94F000289A2C98BD
:1004600084EB8093B3009FEFEBE7F2E99150E0401B
:10047000F040E1F700C00000815F8E3091F727C0A7
:100480000E940F01883A924010F1249A0E94F000D5
:100490001092B30029981BC01F921F927F926F92F7
:1004A0001F930F930E94C503C8010E9420013FEFD4
:1004B00089E698E1315080409040E1F700C00000AB
:1004C00015B80F900F900F900F900F900F900E9403
:1004D0007603B82E1F928F935F924F92DF92CF9246
:1004E0000E94C503F6010F900F900F900F900F9090
:1004F0000F908191882339F09091C00095FFFCCF37
:100500008093C600F6CFEFEFF3ED20E3E150F0402B
:100510002040E1F700C00000BB2009F4D7CE809155
:10052000000120E4822E912C882399F098E0A92ED6
:10053000B12C0E94C40231E0A31AB108D1F781E0C6
:10054000881A910899F78BB18F708BB910920001BE
:10055000BDCE88E0A82EB12C0E941D0391E0A91AFF
:10056000B108D1F7E1E08E1A910899F78BB18F703D
:100570008BB981E080930001A9CE3A98429A8AB162
:10058000806F8AB90C948F038BB18F788BB95F9A87
:100590008FE99FE00197F1F700C000008BB18F7CDD
:1005A0008BB98BB1806C8BB98FE99FE00197F1F724
:1005B00000C000008BB18F748BB95E9A8FE99FE009
:1005C0000197F1F700C000008BB18F768BB98BB12A
:1005D00080668BB98FE99FE00197F1F700C00000BA
:1005E0008BB18F728BB95D9A8FE99FE00197F1F71C
:1005F00000C000008BB18F738BB98BB180638BB956
:100600008FE99FE00197F1F700C000008BB18F7177
:100610008BB95C9A8FE99FE00197F1F700C0000069
:100620008BB18F798BB98BB180698BB98FE99FE0E2
:100630000197F1F700C0000008958BB18F798BB955
:100640008BB180698BB98FE99FE00197F1F700C00A
:1006500000008BB18F718BB95C9A8FE99FE0019795
:10066000F1F700C000008BB18F738BB98BB1806341
:100670008BB98FE99FE00197F1F700C000008BB1C3
:100680008F728BB95D9A8FE99FE00197F1F700C0F7
:1006900000008BB18F768BB98BB180668BB98FE9F7
:1006A0009FE00197F1F700C000008BB18F748BB908
:1006B0005E9A8FE99FE00197F1F700C000008BB1CF
:1006C0008F7C8BB98BB1806C8BB98FE99FE00197E0
:1006D000F1F700C000008BB18F788BB95F9A8FE97A
:1006E0009FE00197F1F700C00000089585E690E0D3
:1006F000329B09C0019739F0EFE1FEE43197F1F741
:1007000000C00000F5CF80E0329908C0EFE1FEE4C0
:100710003197F1F700C000008F5FF6CF089588E1B0
:100720008093C10086E08093C2001092C50087E6E6
:100730008093C40008951092C00088E18093C100A6
:1007400086E08093C2001092C50087E68093C400C3
:1007500008959091C00095FFFCCF8093C600089546
:10076000CF93DF93EC018991882319F00E94A903AC
:10077000FACF8AE0DF91CF910C94A903FB01DC0151
:1007800001900D920020E1F70895AEE0B0E0EBECAF
:10079000F3E00C9486060D891E8986E08C831A830B
:1007A00009838FEF9FE79E838D83AE01475E5F4F86
:1007B0006F89788DCE0101960E94E703EF81F8855D
:1007C000E00FF11F10822E96E4E00C94A206ABE03D
:1007D000B0E0EDEEF3E00C9478066C017B018A0149
:1007E000FC0117821682838181FFCCC1CE01019664
:1007F0003C01F6019381F70193FD859193FF81916F
:100800007F01882309F4BAC1853239F493FD8591BB
:1008100093FF81917F01853229F4B60190E00E9417
:10082000DE05E7CF912C212C312CFFE1F315D8F018
:100830008B3279F038F4803279F08332A1F4232DB1
:1008400020611DC08D3261F0803369F4232D216059
:1008500016C0832D8260382EE32DE4603E2E2AC020
:10086000F32DF8601DC037FC2DC020ED280F2A3075
:1008700040F08E32B9F436FC81C1232D2064322E33
:1008800019C036FE06C08AE0989E200D1124922ED3
:1008900011C0EAE02E9E200D1124222EF32DF062CD
:1008A0003F2E08C08C3621F4832D8068382E02C07C
:1008B000883641F4F70193FD859193FF81917F0183
:1008C0008111B3CF982F9F7D9554933028F40C5FFE
:1008D0001F4F9FE399830DC0833631F0833771F04A
:1008E000833509F059C021C0F801808189830E5FEA
:1008F0001F4F88248394912C530113C02801F2E0E8
:100900004F0E511CF801A080B18036FE03C0692D46
:1009100070E002C06FEF7FEFC5010E94D3054C016C
:100920008201F32DFF773F2E16C0280122E0420EF0
:10093000511CF801A080B18036FE03C0692D70E023
:1009400002C06FEF7FEFC5010E94C8054C01F32D77
:10095000F0683F2E820133FC1BC0822D90E0881688
:100960009906B0F4B60180E290E00E94DE052A9478
:10097000F4CFF50137FC859137FE81915F01B60117
:1009800090E00E94DE0521102A9421E0821A91084D
:100990008114910471F7E8C0843611F0893641F56D
:1009A000F80137FE07C060817181828193810C5FFD
:1009B0001F4F08C060817181072E000C880B990BB6
:1009C0000E5F1F4FF32DFF763F2E97FF09C09095C6
:1009D0008095709561957F4F8F4F9F4FF0683F2EA8
:1009E0002AE030E0A3010E941A06882E861845C02E
:1009F000853731F4232D2F7EB22E2AE030E025C03A
:100A0000932D997FB92E8F36C1F018F4883579F07F
:100A1000B5C0803719F0883721F0B0C0E92FE06108
:100A2000BE2EB4FE0DC0FB2DF460BF2E09C034FEF7
:100A30000AC0292F2660B22E06C028E030E005C08B
:100A400020E130E002C020E132E0F801B7FE07C04B
:100A500060817181828193810C5F1F4F06C060812C
:100A6000718180E090E00E5F1F4FA3010E941A0683
:100A7000882E8618FB2DFF773F2E36FE0DC0232DC6
:100A80002E7FA22E891458F434FE0BC032FC09C00C
:100A9000832D8E7EA82E05C0B82CA32C03C0B82CA5
:100AA00001C0B92CA4FE0FC0FE01E80DF11D80812C
:100AB000803321F49A2D997EA92E09C0A2FE06C08A
:100AC000B394B39404C08A2D867809F0B394A3FC40
:100AD00011C0A0FE06C0B21488F4280C922C9B18FA
:100AE0000EC0B21460F4B60180E290E00E94DE0510
:100AF000B394F7CFB21418F42B1802C0982C212C01
:100B0000A4FE10C0B60180E390E00E94DE05A2FEC4
:100B100017C0A1FC03C088E790E002C088E590E020
:100B2000B6010CC08A2D867859F0A1FE02C08BE276
:100B300001C080E2A7FC8DE2B60190E00E94DE05D4
:100B4000891438F4B60180E390E00E94DE059A949F
:100B5000F7CF8A94F301E80DF11D8081B60190E092
:100B60000E94DE058110F5CF222009F442CEB601A5
:100B700080E290E00E94DE052A94F6CFF60186819D
:100B8000978102C08FEF9FEF2B96E2E10C949406C1
:100B9000FC010590615070400110D8F78095909548
:100BA0008E0F9F1F0895FC0161507040019001104D
:100BB000D8F7809590958E0F9F1F08950F931F93E0
:100BC000CF93DF93FB01238121FD03C08FEF9FEFC4
:100BD0002CC022FF16C046815781248135814217DF
:100BE000530744F4A081B1819D012F5F3F4F3183B2
:100BF00020838C93268137812F5F3F4F3783268355
:100C000014C08B01EC01FB010084F185E02D0995F6
:100C1000892BE1F6D80116968D919C911797019634
:100C200017969C938E931697CE01DF91CF911F91CB
:100C30000F910895FA01AA27283051F1203181F14E
:100C4000E8946F936E7F6E5F7F4F8F4F9F4FAF4FD4
:100C5000B1E03ED0B4E03CD0670F781F891F9A1FE7
:100C6000A11D680F791F8A1F911DA11D6A0F711D9B
:100C7000811D911DA11D20D009F468943F912AE0A7
:100C8000269F11243019305D3193DEF6CF0108958F
:100C9000462F4770405D4193B3E00FD0C9F7F6CFC0
:100CA000462F4F70405D4A3318F0495D31FD405288
:100CB000419302D0A9F7EACFB4E0A695979587951E
:100CC00077956795BA95C9F70097610571050895FD
:100CD0009B01AC010A2E06945795479537952795A9
:100CE000BA95C9F7620F731F841F951FA01D089541
:100CF0002F923F924F925F926F927F928F929F922C
:100D0000AF92BF92CF92DF92EF92FF920F931F9319
:100D1000CF93DF93CDB7DEB7CA1BDB0B0FB6F894CA
:100D2000DEBF0FBECDBF09942A88398848885F840A
:100D30006E847D848C849B84AA84B984C884DF807B
:100D4000EE80FD800C811B81AA81B981CE0FD11D5F
:100D50000FB6F894DEBF0FBECDBFED010895F89435
:020D6000FFCFC3
:100D62000166697265203A2030200A006669726560
:100D7200203A2031200A0074656D706572617475C5
:100D820072653A25640068756D69646974793A2000
:100D92002564006C69676874203A202564200A0083
:100DA200736F696C203A202564200A0077617465AC
:100DB20072203A202564200A0050756C73652077F2
:0C0DC200696474683A2025640D0A000082
:00000001FF
